{
  "_format": "hh-sol-artifact-1",
  "contractName": "Fundraising",
  "sourceName": "contracts/Fundraising.sol",
  "abi": [
    {
      "inputs": [
        {
          "internalType": "uint256",
          "name": "_targetAmount",
          "type": "uint256"
        }
      ],
      "stateMutability": "nonpayable",
      "type": "constructor"
    },
    {
      "inputs": [
        {
          "internalType": "address",
          "name": "",
          "type": "address"
        }
      ],
      "name": "donations",
      "outputs": [
        {
          "internalType": "uint256",
          "name": "",
          "type": "uint256"
        }
      ],
      "stateMutability": "view",
      "type": "function"
    },
    {
      "inputs": [],
      "name": "finishTime",
      "outputs": [
        {
          "internalType": "uint256",
          "name": "",
          "type": "uint256"
        }
      ],
      "stateMutability": "view",
      "type": "function"
    },
    {
      "inputs": [],
      "name": "owner",
      "outputs": [
        {
          "internalType": "address",
          "name": "",
          "type": "address"
        }
      ],
      "stateMutability": "view",
      "type": "function"
    },
    {
      "inputs": [],
      "name": "raisedAmount",
      "outputs": [
        {
          "internalType": "uint256",
          "name": "",
          "type": "uint256"
        }
      ],
      "stateMutability": "view",
      "type": "function"
    },
    {
      "inputs": [],
      "name": "refund",
      "outputs": [],
      "stateMutability": "nonpayable",
      "type": "function"
    },
    {
      "inputs": [],
      "name": "targetAmount",
      "outputs": [
        {
          "internalType": "uint256",
          "name": "",
          "type": "uint256"
        }
      ],
      "stateMutability": "view",
      "type": "function"
    },
    {
      "inputs": [],
      "name": "withDrawDonations",
      "outputs": [],
      "stateMutability": "nonpayable",
      "type": "function"
    },
    {
      "stateMutability": "payable",
      "type": "receive"
    }
  ],
  "bytecode": "0x60806040526000600355610e104261001791906100d4565b60045534801561002657600080fd5b50604051610bc7380380610bc7833981810160405281019061004891906100ab565b8060008190555033600160006101000a81548173ffffffffffffffffffffffffffffffffffffffff021916908373ffffffffffffffffffffffffffffffffffffffff1602179055505061017a565b6000815190506100a581610163565b92915050565b6000602082840312156100bd57600080fd5b60006100cb84828501610096565b91505092915050565b60006100df8261012a565b91506100ea8361012a565b9250827fffffffffffffffffffffffffffffffffffffffffffffffffffffffffffffffff0382111561011f5761011e610134565b5b828201905092915050565b6000819050919050565b7f4e487b7100000000000000000000000000000000000000000000000000000000600052601160045260246000fd5b61016c8161012a565b811461017757600080fd5b50565b610a3e806101896000396000f3fe6080604052600436106100745760003560e01c80638da5cb5b1161004e5780638da5cb5b1461018c578063953b8fb8146101b7578063c59ee1dc146101e2578063cc6cb19a1461020d5761012e565b80630b4fdad914610133578063590e1ae31461014a5780635958611e146101615761012e565b3661012e5760045442106100bd576040517f08c379a00000000000000000000000000000000000000000000000000000000081526004016100b490610864565b60405180910390fd5b34600260003373ffffffffffffffffffffffffffffffffffffffff1673ffffffffffffffffffffffffffffffffffffffff168152602001908152602001600020600082825461010c9190610930565b9250508190555034600360008282546101259190610930565b92505081905550005b600080fd5b34801561013f57600080fd5b5061014861024a565b005b34801561015657600080fd5b5061015f6103d2565b005b34801561016d57600080fd5b506101766105b1565b6040516101839190610904565b60405180910390f35b34801561019857600080fd5b506101a16105b7565b6040516101ae9190610829565b60405180910390f35b3480156101c357600080fd5b506101cc6105dd565b6040516101d99190610904565b60405180910390f35b3480156101ee57600080fd5b506101f76105e3565b6040516102049190610904565b60405180910390f35b34801561021957600080fd5b50610234600480360381019061022f9190610616565b6105e9565b6040516102419190610904565b60405180910390f35b600160009054906101000a900473ffffffffffffffffffffffffffffffffffffffff1673ffffffffffffffffffffffffffffffffffffffff163373ffffffffffffffffffffffffffffffffffffffff16146102da576040517f08c379a00000000000000000000000000000000000000000000000000000000081526004016102d1906108c4565b60405180910390fd5b6000546003541015610321576040517f08c379a000000000000000000000000000000000000000000000000000000000815260040161031890610844565b60405180910390fd5b6004544211610365576040517f08c379a000000000000000000000000000000000000000000000000000000000815260040161035c906108e4565b60405180910390fd5b600160009054906101000a900473ffffffffffffffffffffffffffffffffffffffff1673ffffffffffffffffffffffffffffffffffffffff166108fc6003549081150290604051600060405180830381858888f193505050501580156103cf573d6000803e3d6000fd5b50565b6004544211610416576040517f08c379a000000000000000000000000000000000000000000000000000000000815260040161040d906108e4565b60405180910390fd5b6000546003541061045c576040517f08c379a000000000000000000000000000000000000000000000000000000000815260040161045390610884565b60405180910390fd5b6000600260003373ffffffffffffffffffffffffffffffffffffffff1673ffffffffffffffffffffffffffffffffffffffff16815260200190815260200160002054116104de576040517f08c379a00000000000000000000000000000000000000000000000000000000081526004016104d5906108a4565b60405180910390fd5b6000600260003373ffffffffffffffffffffffffffffffffffffffff1673ffffffffffffffffffffffffffffffffffffffff1681526020019081526020016000205490506000600260003373ffffffffffffffffffffffffffffffffffffffff1673ffffffffffffffffffffffffffffffffffffffff168152602001908152602001600020819055503373ffffffffffffffffffffffffffffffffffffffff166108fc829081150290604051600060405180830381858888f193505050501580156105ad573d6000803e3d6000fd5b5050565b60045481565b600160009054906101000a900473ffffffffffffffffffffffffffffffffffffffff1681565b60005481565b60035481565b60026020528060005260406000206000915090505481565b600081359050610610816109f1565b92915050565b60006020828403121561062857600080fd5b600061063684828501610601565b91505092915050565b61064881610986565b82525050565b600061065b60228361091f565b91507f5468652070726f6a65637420646964206e6f742072656163682074686520676f60008301527f616c0000000000000000000000000000000000000000000000000000000000006020830152604082019050919050565b60006106c160158361091f565b91507f546869732063616d706169676e206973206f76657200000000000000000000006000830152602082019050919050565b6000610701601e8361091f565b91507f546869732063616d706169676e20726561636865642074686520676f616c00006000830152602082019050919050565b600061074160208361091f565b91507f596f7520646964206e6f7420646f6e61746520746869732063616d706169676e6000830152602082019050919050565b600061078160288361091f565b91507f46756e64732077696c6c206f6e6c792062652072656c656173656420746f207460008301527f6865206f776e65720000000000000000000000000000000000000000000000006020830152604082019050919050565b60006107e7601d8361091f565b91507f546869732063616d706169676e206973206e6f74206f766572207965740000006000830152602082019050919050565b610823816109b8565b82525050565b600060208201905061083e600083018461063f565b92915050565b6000602082019050818103600083015261085d8161064e565b9050919050565b6000602082019050818103600083015261087d816106b4565b9050919050565b6000602082019050818103600083015261089d816106f4565b9050919050565b600060208201905081810360008301526108bd81610734565b9050919050565b600060208201905081810360008301526108dd81610774565b9050919050565b600060208201905081810360008301526108fd816107da565b9050919050565b6000602082019050610919600083018461081a565b92915050565b600082825260208201905092915050565b600061093b826109b8565b9150610946836109b8565b9250827fffffffffffffffffffffffffffffffffffffffffffffffffffffffffffffffff0382111561097b5761097a6109c2565b5b828201905092915050565b600061099182610998565b9050919050565b600073ffffffffffffffffffffffffffffffffffffffff82169050919050565b6000819050919050565b7f4e487b7100000000000000000000000000000000000000000000000000000000600052601160045260246000fd5b6109fa81610986565b8114610a0557600080fd5b5056fea2646970667358221220e21337d71e2c9f89c33f956f001360499e857f4052044eb4fe3af80bbe05755a64736f6c63430008000033",
  "linkReferences": {},
  "deployedLinkReferences": {}
}